{"abi":[{"inputs":[],"stateMutability":"payable","type":"constructor","name":"constructor"},{"anonymous":false,"inputs":[{"indexed":true,"internalType":"address","name":"_from","type":"address"},{"indexed":false,"internalType":"uint256","name":"timestamp","type":"uint256"},{"indexed":false,"internalType":"string","name":"_message","type":"string"}],"name":"NewWave","type":"event"},{"inputs":[{"internalType":"uint256","name":"_amount","type":"uint256"}],"name":"fundContract","outputs":[],"stateMutability":"nonpayable","type":"function"},{"inputs":[],"name":"getAllWaves","outputs":[{"components":[{"internalType":"address","name":"waver","type":"address"},{"internalType":"string","name":"message","type":"string"},{"internalType":"uint256","name":"timestamp","type":"uint256"}],"internalType":"struct WavePortal.Wave[]","name":"","type":"tuple[]"}],"stateMutability":"view","type":"function"},{"inputs":[],"name":"getTotalWaves","outputs":[{"internalType":"uint256","name":"","type":"uint256"}],"stateMutability":"view","type":"function"},{"inputs":[],"name":"get_Balance","outputs":[{"internalType":"uint256","name":"","type":"uint256"}],"stateMutability":"view","type":"function"},{"inputs":[],"name":"totalWaves","outputs":[{"internalType":"uint256","name":"","type":"uint256"}],"stateMutability":"view","type":"function"},{"inputs":[{"internalType":"string","name":"_message","type":"string"}],"name":"wave","outputs":[],"stateMutability":"payable","type":"function"},{"inputs":[{"internalType":"uint256","name":"","type":"uint256"}],"name":"waves","outputs":[{"internalType":"address","name":"waver","type":"address"},{"internalType":"string","name":"message","type":"string"},{"internalType":"uint256","name":"timestamp","type":"uint256"}],"stateMutability":"view","type":"function"}],"bytecode":"608060405267016345785d8a000060005561089a8061001f6000396000f3fe6080604052600436106100705760003560e01c8063449d46c01161004e578063449d46c0146100ce5780639a2cdc08146100e1578063bd43a908146100f6578063c781267a1461011857600080fd5b8063017088e414610075578063291bcab3146100985780633519a2f8146100ae575b600080fd5b34801561008157600080fd5b5033315b6040519081526020015b60405180910390f35b3480156100a457600080fd5b5061008560015481565b3480156100ba57600080fd5b506100cc6100c93660046105f6565b50565b005b6100cc6100dc366004610625565b610147565b3480156100ed57600080fd5b50600154610085565b34801561010257600080fd5b5061010b610384565b60405161008f9190610723565b34801561012457600080fd5b506101386101333660046105f6565b610495565b60405161008f939291906107af565b600180600082825461015991906107e3565b909155505060408051606081018252338152602080820184815242938301939093526002805460018101825560009190915282517f405787fa12a823e0f2b7631cc41b3ba8828b3321ca811111fa75cd3aa3bb5ace600390920291820180546001600160a01b0319166001600160a01b039092169190911781559351805193949361020d937f405787fa12a823e0f2b7631cc41b3ba8828b3321ca811111fa75cd3aa3bb5acf90930192919091019061055d565b506040918201516002909101555133907f5f7e16dc676677766a70e9c5628aa6c54ddb8b6e5188e2ae1e1f17f1ffbea7169061024c9042908590610809565b60405180910390a266038d7ea4c68000478111156102d75760405162461bcd60e51b815260206004820152603760248201527f547279696e6720746f207769746864726177206d6f7265206d6f6e657920746860448201527f616e207468697320636f6e74726163742068617321212100000000000000000060648201526084015b60405180910390fd5b604051600090339083908381818185875af1925050503d8060008114610319576040519150601f19603f3d011682016040523d82523d6000602084013e61031e565b606091505b505090508061037f5760405162461bcd60e51b815260206004820152602760248201527f4661696c656420746f207769746864726177206d6f6e65792066726f6d20636f604482015266373a3930b1ba1760c91b60648201526084016102ce565b505050565b60606002805480602002602001604051908101604052809291908181526020016000905b8282101561048c57600084815260209081902060408051606081019091526003850290910180546001600160a01b0316825260018101805492939192918401916103f19061082a565b80601f016020809104026020016040519081016040528092919081815260200182805461041d9061082a565b801561046a5780601f1061043f5761010080835404028352916020019161046a565b820191906000526020600020905b81548152906001019060200180831161044d57829003601f168201915b50505050508152602001600282015481525050815260200190600101906103a8565b50505050905090565b600281815481106104a557600080fd5b6000918252602090912060039091020180546001820180546001600160a01b039092169350906104d49061082a565b80601f01602080910402602001604051908101604052809291908181526020018280546105009061082a565b801561054d5780601f106105225761010080835404028352916020019161054d565b820191906000526020600020905b81548152906001019060200180831161053057829003601f168201915b5050505050908060020154905083565b8280546105699061082a565b90600052602060002090601f01602090048101928261058b57600085556105d1565b82601f106105a457805160ff19168380011785556105d1565b828001600101855582156105d1579182015b828111156105d15782518255916020019190600101906105b6565b506105dd9291506105e1565b5090565b5b808211156105dd57600081556001016105e2565b60006020828403121561060857600080fd5b5035919050565b634e487b7160e01b600052604160045260246000fd5b60006020828403121561063757600080fd5b813567ffffffffffffffff8082111561064f57600080fd5b818401915084601f83011261066357600080fd5b8135818111156106755761067561060f565b604051601f8201601f19908116603f0116810190838211818310171561069d5761069d61060f565b816040528281528760208487010111156106b657600080fd5b826020860160208301376000928101602001929092525095945050505050565b6000815180845260005b818110156106fc576020818501810151868301820152016106e0565b8181111561070e576000602083870101525b50601f01601f19169290920160200192915050565b60006020808301818452808551808352604092508286019150828160051b87010184880160005b838110156107a157888303603f19018552815180516001600160a01b0316845287810151606089860181905290610783828701826106d6565b9289015195890195909552509487019492509086019060010161074a565b509098975050505050505050565b6001600160a01b03841681526060602082018190526000906107d3908301856106d6565b9050826040830152949350505050565b6000821982111561080457634e487b7160e01b600052601160045260246000fd5b500190565b82815260406020820152600061082260408301846106d6565b949350505050565b600181811c9082168061083e57607f821691505b60208210810361085e57634e487b7160e01b600052602260045260246000fd5b5091905056fea26469706673582212209e11c422e44f9eacbfeff1c5030043d1a84b8406f769feb7008c68d6df59faf264736f6c634300080d0033","bytecodeSha1":"d8e5af2f9dd961575c80a19e9568c1d22d0ba08c","compiler":{"evm_version":"istanbul","optimizer":{"enabled":true,"runs":200},"version":"0.8.13+commit.abaa5c0e"},"contractName":"WavePortal","language":"Solidity","natspec":{"kind":"dev","methods":{},"version":1},"opcodes":"PUSH1 0x80 PUSH1 0x40 MSTORE PUSH1 0x4 CALLDATASIZE LT PUSH2 0x70 JUMPI PUSH1 0x0 CALLDATALOAD PUSH1 0xE0 SHR DUP1 PUSH4 0x449D46C0 GT PUSH2 0x4E JUMPI DUP1 PUSH4 0x449D46C0 EQ PUSH2 0xCE JUMPI DUP1 PUSH4 0x9A2CDC08 EQ PUSH2 0xE1 JUMPI DUP1 PUSH4 0xBD43A908 EQ PUSH2 0xF6 JUMPI DUP1 PUSH4 0xC781267A EQ PUSH2 0x118 JUMPI PUSH1 0x0 DUP1 REVERT JUMPDEST DUP1 PUSH4 0x17088E4 EQ PUSH2 0x75 JUMPI DUP1 PUSH4 0x291BCAB3 EQ PUSH2 0x98 JUMPI DUP1 PUSH4 0x3519A2F8 EQ PUSH2 0xAE JUMPI JUMPDEST PUSH1 0x0 DUP1 REVERT JUMPDEST CALLVALUE DUP1 ISZERO PUSH2 0x81 JUMPI PUSH1 0x0 DUP1 REVERT JUMPDEST POP CALLER BALANCE JUMPDEST PUSH1 0x40 MLOAD SWAP1 DUP2 MSTORE PUSH1 0x20 ADD JUMPDEST PUSH1 0x40 MLOAD DUP1 SWAP2 SUB SWAP1 RETURN JUMPDEST CALLVALUE DUP1 ISZERO PUSH2 0xA4 JUMPI PUSH1 0x0 DUP1 REVERT JUMPDEST POP PUSH2 0x85 PUSH1 0x1 SLOAD DUP2 JUMP JUMPDEST CALLVALUE DUP1 ISZERO PUSH2 0xBA JUMPI PUSH1 0x0 DUP1 REVERT JUMPDEST POP PUSH2 0xCC PUSH2 0xC9 CALLDATASIZE PUSH1 0x4 PUSH2 0x5F6 JUMP JUMPDEST POP JUMP JUMPDEST STOP JUMPDEST PUSH2 0xCC PUSH2 0xDC CALLDATASIZE PUSH1 0x4 PUSH2 0x625 JUMP JUMPDEST PUSH2 0x147 JUMP JUMPDEST CALLVALUE DUP1 ISZERO PUSH2 0xED JUMPI PUSH1 0x0 DUP1 REVERT JUMPDEST POP PUSH1 0x1 SLOAD PUSH2 0x85 JUMP JUMPDEST CALLVALUE DUP1 ISZERO PUSH2 0x102 JUMPI PUSH1 0x0 DUP1 REVERT JUMPDEST POP PUSH2 0x10B PUSH2 0x384 JUMP JUMPDEST PUSH1 0x40 MLOAD PUSH2 0x8F SWAP2 SWAP1 PUSH2 0x723 JUMP JUMPDEST CALLVALUE DUP1 ISZERO PUSH2 0x124 JUMPI PUSH1 0x0 DUP1 REVERT JUMPDEST POP PUSH2 0x138 PUSH2 0x133 CALLDATASIZE PUSH1 0x4 PUSH2 0x5F6 JUMP JUMPDEST PUSH2 0x495 JUMP JUMPDEST PUSH1 0x40 MLOAD PUSH2 0x8F SWAP4 SWAP3 SWAP2 SWAP1 PUSH2 0x7AF JUMP JUMPDEST PUSH1 0x1 DUP1 PUSH1 0x0 DUP3 DUP3 SLOAD PUSH2 0x159 SWAP2 SWAP1 PUSH2 0x7E3 JUMP JUMPDEST SWAP1 SWAP2 SSTORE POP POP PUSH1 0x40 DUP1 MLOAD PUSH1 0x60 DUP2 ADD DUP3 MSTORE CALLER DUP2 MSTORE PUSH1 0x20 DUP1 DUP3 ADD DUP5 DUP2 MSTORE TIMESTAMP SWAP4 DUP4 ADD SWAP4 SWAP1 SWAP4 MSTORE PUSH1 0x2 DUP1 SLOAD PUSH1 0x1 DUP2 ADD DUP3 SSTORE PUSH1 0x0 SWAP2 SWAP1 SWAP2 MSTORE DUP3 MLOAD PUSH32 0x405787FA12A823E0F2B7631CC41B3BA8828B3321CA811111FA75CD3AA3BB5ACE PUSH1 0x3 SWAP1 SWAP3 MUL SWAP2 DUP3 ADD DUP1 SLOAD PUSH1 0x1 PUSH1 0x1 PUSH1 0xA0 SHL SUB NOT AND PUSH1 0x1 PUSH1 0x1 PUSH1 0xA0 SHL SUB SWAP1 SWAP3 AND SWAP2 SWAP1 SWAP2 OR DUP2 SSTORE SWAP4 MLOAD DUP1 MLOAD SWAP4 SWAP5 SWAP4 PUSH2 0x20D SWAP4 PUSH32 0x405787FA12A823E0F2B7631CC41B3BA8828B3321CA811111FA75CD3AA3BB5ACF SWAP1 SWAP4 ADD SWAP3 SWAP2 SWAP1 SWAP2 ADD SWAP1 PUSH2 0x55D JUMP JUMPDEST POP PUSH1 0x40 SWAP2 DUP3 ADD MLOAD PUSH1 0x2 SWAP1 SWAP2 ADD SSTORE MLOAD CALLER SWAP1 PUSH32 0x5F7E16DC676677766A70E9C5628AA6C54DDB8B6E5188E2AE1E1F17F1FFBEA716 SWAP1 PUSH2 0x24C SWAP1 TIMESTAMP SWAP1 DUP6 SWAP1 PUSH2 0x809 JUMP JUMPDEST PUSH1 0x40 MLOAD DUP1 SWAP2 SUB SWAP1 LOG2 PUSH7 0x38D7EA4C68000 SELFBALANCE DUP2 GT ISZERO PUSH2 0x2D7 JUMPI PUSH1 0x40 MLOAD PUSH3 0x461BCD PUSH1 0xE5 SHL DUP2 MSTORE PUSH1 0x20 PUSH1 0x4 DUP3 ADD MSTORE PUSH1 0x37 PUSH1 0x24 DUP3 ADD MSTORE PUSH32 0x547279696E6720746F207769746864726177206D6F7265206D6F6E6579207468 PUSH1 0x44 DUP3 ADD MSTORE PUSH32 0x616E207468697320636F6E747261637420686173212121000000000000000000 PUSH1 0x64 DUP3 ADD MSTORE PUSH1 0x84 ADD JUMPDEST PUSH1 0x40 MLOAD DUP1 SWAP2 SUB SWAP1 REVERT JUMPDEST PUSH1 0x40 MLOAD PUSH1 0x0 SWAP1 CALLER SWAP1 DUP4 SWAP1 DUP4 DUP2 DUP2 DUP2 DUP6 DUP8 GAS CALL SWAP3 POP POP POP RETURNDATASIZE DUP1 PUSH1 0x0 DUP2 EQ PUSH2 0x319 JUMPI PUSH1 0x40 MLOAD SWAP2 POP PUSH1 0x1F NOT PUSH1 0x3F RETURNDATASIZE ADD AND DUP3 ADD PUSH1 0x40 MSTORE RETURNDATASIZE DUP3 MSTORE RETURNDATASIZE PUSH1 0x0 PUSH1 0x20 DUP5 ADD RETURNDATACOPY PUSH2 0x31E JUMP JUMPDEST PUSH1 0x60 SWAP2 POP JUMPDEST POP POP SWAP1 POP DUP1 PUSH2 0x37F JUMPI PUSH1 0x40 MLOAD PUSH3 0x461BCD PUSH1 0xE5 SHL DUP2 MSTORE PUSH1 0x20 PUSH1 0x4 DUP3 ADD MSTORE PUSH1 0x27 PUSH1 0x24 DUP3 ADD MSTORE PUSH32 0x4661696C656420746F207769746864726177206D6F6E65792066726F6D20636F PUSH1 0x44 DUP3 ADD MSTORE PUSH7 0x373A3930B1BA17 PUSH1 0xC9 SHL PUSH1 0x64 DUP3 ADD MSTORE PUSH1 0x84 ADD PUSH2 0x2CE JUMP JUMPDEST POP POP POP JUMP JUMPDEST PUSH1 0x60 PUSH1 0x2 DUP1 SLOAD DUP1 PUSH1 0x20 MUL PUSH1 0x20 ADD PUSH1 0x40 MLOAD SWAP1 DUP2 ADD PUSH1 0x40 MSTORE DUP1 SWAP3 SWAP2 SWAP1 DUP2 DUP2 MSTORE PUSH1 0x20 ADD PUSH1 0x0 SWAP1 JUMPDEST DUP3 DUP3 LT ISZERO PUSH2 0x48C JUMPI PUSH1 0x0 DUP5 DUP2 MSTORE PUSH1 0x20 SWAP1 DUP2 SWAP1 KECCAK256 PUSH1 0x40 DUP1 MLOAD PUSH1 0x60 DUP2 ADD SWAP1 SWAP2 MSTORE PUSH1 0x3 DUP6 MUL SWAP1 SWAP2 ADD DUP1 SLOAD PUSH1 0x1 PUSH1 0x1 PUSH1 0xA0 SHL SUB AND DUP3 MSTORE PUSH1 0x1 DUP2 ADD DUP1 SLOAD SWAP3 SWAP4 SWAP2 SWAP3 SWAP2 DUP5 ADD SWAP2 PUSH2 0x3F1 SWAP1 PUSH2 0x82A JUMP JUMPDEST DUP1 PUSH1 0x1F ADD PUSH1 0x20 DUP1 SWAP2 DIV MUL PUSH1 0x20 ADD PUSH1 0x40 MLOAD SWAP1 DUP2 ADD PUSH1 0x40 MSTORE DUP1 SWAP3 SWAP2 SWAP1 DUP2 DUP2 MSTORE PUSH1 0x20 ADD DUP3 DUP1 SLOAD PUSH2 0x41D SWAP1 PUSH2 0x82A JUMP JUMPDEST DUP1 ISZERO PUSH2 0x46A JUMPI DUP1 PUSH1 0x1F LT PUSH2 0x43F JUMPI PUSH2 0x100 DUP1 DUP4 SLOAD DIV MUL DUP4 MSTORE SWAP2 PUSH1 0x20 ADD SWAP2 PUSH2 0x46A JUMP JUMPDEST DUP3 ADD SWAP2 SWAP1 PUSH1 0x0 MSTORE PUSH1 0x20 PUSH1 0x0 KECCAK256 SWAP1 JUMPDEST DUP2 SLOAD DUP2 MSTORE SWAP1 PUSH1 0x1 ADD SWAP1 PUSH1 0x20 ADD DUP1 DUP4 GT PUSH2 0x44D JUMPI DUP3 SWAP1 SUB PUSH1 0x1F AND DUP3 ADD SWAP2 JUMPDEST POP POP POP POP POP DUP2 MSTORE PUSH1 0x20 ADD PUSH1 0x2 DUP3 ADD SLOAD DUP2 MSTORE POP POP DUP2 MSTORE PUSH1 0x20 ADD SWAP1 PUSH1 0x1 ADD SWAP1 PUSH2 0x3A8 JUMP JUMPDEST POP POP POP POP SWAP1 POP SWAP1 JUMP JUMPDEST PUSH1 0x2 DUP2 DUP2 SLOAD DUP2 LT PUSH2 0x4A5 JUMPI PUSH1 0x0 DUP1 REVERT JUMPDEST PUSH1 0x0 SWAP2 DUP3 MSTORE PUSH1 0x20 SWAP1 SWAP2 KECCAK256 PUSH1 0x3 SWAP1 SWAP2 MUL ADD DUP1 SLOAD PUSH1 0x1 DUP3 ADD DUP1 SLOAD PUSH1 0x1 PUSH1 0x1 PUSH1 0xA0 SHL SUB SWAP1 SWAP3 AND SWAP4 POP SWAP1 PUSH2 0x4D4 SWAP1 PUSH2 0x82A JUMP JUMPDEST DUP1 PUSH1 0x1F ADD PUSH1 0x20 DUP1 SWAP2 DIV MUL PUSH1 0x20 ADD PUSH1 0x40 MLOAD SWAP1 DUP2 ADD PUSH1 0x40 MSTORE DUP1 SWAP3 SWAP2 SWAP1 DUP2 DUP2 MSTORE PUSH1 0x20 ADD DUP3 DUP1 SLOAD PUSH2 0x500 SWAP1 PUSH2 0x82A JUMP JUMPDEST DUP1 ISZERO PUSH2 0x54D JUMPI DUP1 PUSH1 0x1F LT PUSH2 0x522 JUMPI PUSH2 0x100 DUP1 DUP4 SLOAD DIV MUL DUP4 MSTORE SWAP2 PUSH1 0x20 ADD SWAP2 PUSH2 0x54D JUMP JUMPDEST DUP3 ADD SWAP2 SWAP1 PUSH1 0x0 MSTORE PUSH1 0x20 PUSH1 0x0 KECCAK256 SWAP1 JUMPDEST DUP2 SLOAD DUP2 MSTORE SWAP1 PUSH1 0x1 ADD SWAP1 PUSH1 0x20 ADD DUP1 DUP4 GT PUSH2 0x530 JUMPI DUP3 SWAP1 SUB PUSH1 0x1F AND DUP3 ADD SWAP2 JUMPDEST POP POP POP POP POP SWAP1 DUP1 PUSH1 0x2 ADD SLOAD SWAP1 POP DUP4 JUMP JUMPDEST DUP3 DUP1 SLOAD PUSH2 0x569 SWAP1 PUSH2 0x82A JUMP JUMPDEST SWAP1 PUSH1 0x0 MSTORE PUSH1 0x20 PUSH1 0x0 KECCAK256 SWAP1 PUSH1 0x1F ADD PUSH1 0x20 SWAP1 DIV DUP2 ADD SWAP3 DUP3 PUSH2 0x58B JUMPI PUSH1 0x0 DUP6 SSTORE PUSH2 0x5D1 JUMP JUMPDEST DUP3 PUSH1 0x1F LT PUSH2 0x5A4 JUMPI DUP1 MLOAD PUSH1 0xFF NOT AND DUP4 DUP1 ADD OR DUP6 SSTORE PUSH2 0x5D1 JUMP JUMPDEST DUP3 DUP1 ADD PUSH1 0x1 ADD DUP6 SSTORE DUP3 ISZERO PUSH2 0x5D1 JUMPI SWAP2 DUP3 ADD JUMPDEST DUP3 DUP2 GT ISZERO PUSH2 0x5D1 JUMPI DUP3 MLOAD DUP3 SSTORE SWAP2 PUSH1 0x20 ADD SWAP2 SWAP1 PUSH1 0x1 ADD SWAP1 PUSH2 0x5B6 JUMP JUMPDEST POP PUSH2 0x5DD SWAP3 SWAP2 POP PUSH2 0x5E1 JUMP JUMPDEST POP SWAP1 JUMP JUMPDEST JUMPDEST DUP1 DUP3 GT ISZERO PUSH2 0x5DD JUMPI PUSH1 0x0 DUP2 SSTORE PUSH1 0x1 ADD PUSH2 0x5E2 JUMP JUMPDEST PUSH1 0x0 PUSH1 0x20 DUP3 DUP5 SUB SLT ISZERO PUSH2 0x608 JUMPI PUSH1 0x0 DUP1 REVERT JUMPDEST POP CALLDATALOAD SWAP2 SWAP1 POP JUMP JUMPDEST PUSH4 0x4E487B71 PUSH1 0xE0 SHL PUSH1 0x0 MSTORE PUSH1 0x41 PUSH1 0x4 MSTORE PUSH1 0x24 PUSH1 0x0 REVERT JUMPDEST PUSH1 0x0 PUSH1 0x20 DUP3 DUP5 SUB SLT ISZERO PUSH2 0x637 JUMPI PUSH1 0x0 DUP1 REVERT JUMPDEST DUP2 CALLDATALOAD PUSH8 0xFFFFFFFFFFFFFFFF DUP1 DUP3 GT ISZERO PUSH2 0x64F JUMPI PUSH1 0x0 DUP1 REVERT JUMPDEST DUP2 DUP5 ADD SWAP2 POP DUP5 PUSH1 0x1F DUP4 ADD SLT PUSH2 0x663 JUMPI PUSH1 0x0 DUP1 REVERT JUMPDEST DUP2 CALLDATALOAD DUP2 DUP2 GT ISZERO PUSH2 0x675 JUMPI PUSH2 0x675 PUSH2 0x60F JUMP JUMPDEST PUSH1 0x40 MLOAD PUSH1 0x1F DUP3 ADD PUSH1 0x1F NOT SWAP1 DUP2 AND PUSH1 0x3F ADD AND DUP2 ADD SWAP1 DUP4 DUP3 GT DUP2 DUP4 LT OR ISZERO PUSH2 0x69D JUMPI PUSH2 0x69D PUSH2 0x60F JUMP JUMPDEST DUP2 PUSH1 0x40 MSTORE DUP3 DUP2 MSTORE DUP8 PUSH1 0x20 DUP5 DUP8 ADD ADD GT ISZERO PUSH2 0x6B6 JUMPI PUSH1 0x0 DUP1 REVERT JUMPDEST DUP3 PUSH1 0x20 DUP7 ADD PUSH1 0x20 DUP4 ADD CALLDATACOPY PUSH1 0x0 SWAP3 DUP2 ADD PUSH1 0x20 ADD SWAP3 SWAP1 SWAP3 MSTORE POP SWAP6 SWAP5 POP POP POP POP POP JUMP JUMPDEST PUSH1 0x0 DUP2 MLOAD DUP1 DUP5 MSTORE PUSH1 0x0 JUMPDEST DUP2 DUP2 LT ISZERO PUSH2 0x6FC JUMPI PUSH1 0x20 DUP2 DUP6 ADD DUP2 ADD MLOAD DUP7 DUP4 ADD DUP3 ADD MSTORE ADD PUSH2 0x6E0 JUMP JUMPDEST DUP2 DUP2 GT ISZERO PUSH2 0x70E JUMPI PUSH1 0x0 PUSH1 0x20 DUP4 DUP8 ADD ADD MSTORE JUMPDEST POP PUSH1 0x1F ADD PUSH1 0x1F NOT AND SWAP3 SWAP1 SWAP3 ADD PUSH1 0x20 ADD SWAP3 SWAP2 POP POP JUMP JUMPDEST PUSH1 0x0 PUSH1 0x20 DUP1 DUP4 ADD DUP2 DUP5 MSTORE DUP1 DUP6 MLOAD DUP1 DUP4 MSTORE PUSH1 0x40 SWAP3 POP DUP3 DUP7 ADD SWAP2 POP DUP3 DUP2 PUSH1 0x5 SHL DUP8 ADD ADD DUP5 DUP9 ADD PUSH1 0x0 JUMPDEST DUP4 DUP2 LT ISZERO PUSH2 0x7A1 JUMPI DUP9 DUP4 SUB PUSH1 0x3F NOT ADD DUP6 MSTORE DUP2 MLOAD DUP1 MLOAD PUSH1 0x1 PUSH1 0x1 PUSH1 0xA0 SHL SUB AND DUP5 MSTORE DUP8 DUP2 ADD MLOAD PUSH1 0x60 DUP10 DUP7 ADD DUP2 SWAP1 MSTORE SWAP1 PUSH2 0x783 DUP3 DUP8 ADD DUP3 PUSH2 0x6D6 JUMP JUMPDEST SWAP3 DUP10 ADD MLOAD SWAP6 DUP10 ADD SWAP6 SWAP1 SWAP6 MSTORE POP SWAP5 DUP8 ADD SWAP5 SWAP3 POP SWAP1 DUP7 ADD SWAP1 PUSH1 0x1 ADD PUSH2 0x74A JUMP JUMPDEST POP SWAP1 SWAP9 SWAP8 POP POP POP POP POP POP POP POP JUMP JUMPDEST PUSH1 0x1 PUSH1 0x1 PUSH1 0xA0 SHL SUB DUP5 AND DUP2 MSTORE PUSH1 0x60 PUSH1 0x20 DUP3 ADD DUP2 SWAP1 MSTORE PUSH1 0x0 SWAP1 PUSH2 0x7D3 SWAP1 DUP4 ADD DUP6 PUSH2 0x6D6 JUMP JUMPDEST SWAP1 POP DUP3 PUSH1 0x40 DUP4 ADD MSTORE SWAP5 SWAP4 POP POP POP POP JUMP JUMPDEST PUSH1 0x0 DUP3 NOT DUP3 GT ISZERO PUSH2 0x804 JUMPI PUSH4 0x4E487B71 PUSH1 0xE0 SHL PUSH1 0x0 MSTORE PUSH1 0x11 PUSH1 0x4 MSTORE PUSH1 0x24 PUSH1 0x0 REVERT JUMPDEST POP ADD SWAP1 JUMP JUMPDEST DUP3 DUP2 MSTORE PUSH1 0x40 PUSH1 0x20 DUP3 ADD MSTORE PUSH1 0x0 PUSH2 0x822 PUSH1 0x40 DUP4 ADD DUP5 PUSH2 0x6D6 JUMP JUMPDEST SWAP5 SWAP4 POP POP POP POP JUMP JUMPDEST PUSH1 0x1 DUP2 DUP2 SHR SWAP1 DUP3 AND DUP1 PUSH2 0x83E JUMPI PUSH1 0x7F DUP3 AND SWAP2 POP JUMPDEST PUSH1 0x20 DUP3 LT DUP2 SUB PUSH2 0x85E JUMPI PUSH4 0x4E487B71 PUSH1 0xE0 SHL PUSH1 0x0 MSTORE PUSH1 0x22 PUSH1 0x4 MSTORE PUSH1 0x24 PUSH1 0x0 REVERT JUMPDEST POP SWAP2 SWAP1 POP JUMP INVALID LOG2 PUSH5 0x6970667358 0x22 SLT KECCAK256 SWAP15 GT 0xC4 0x22 0xE4 0x4F SWAP15 0xAC 0xBF 0xEF CALL 0xC5 SUB STOP NUMBER 0xD1 0xA8 0x4B DUP5 MOD 0xF7 PUSH10 0xFEB7008C68D6DF59FAF2 PUSH5 0x736F6C6343 STOP ADDMOD 0xD STOP CALLER ","sha1":"6c808925174cf773cf275b26176b1bc7074730ca","source":"// SPDX-License-Identifier:MIT\npragma solidity ^0.8.0;\n\ncontract WavePortal {\n    uint256 amount = 0.1 ether;\n    uint256 public totalWaves;\n\n    event NewWave(address indexed _from, uint256 timestamp, string _message);\n\n    struct Wave {\n        address waver;\n        string message;\n        uint256 timestamp;\n    }\n\n    Wave[] public waves;\n\n    constructor() payable {}\n\n    function fundContract(uint256 _amount) public {\n        \n    }\n\n    function wave(string memory _message) public payable {\n        totalWaves += 1;\n\n        waves.push(Wave(msg.sender, _message, block.timestamp));\n\n        emit NewWave(msg.sender, block.timestamp, _message);\n\n        uint256 prizeAmount = 1 * 10**15;\n        require(\n            prizeAmount <= address(this).balance,\n            \"Trying to withdraw more money than this contract has!!!\"\n        );\n\n        (bool success, ) = payable(msg.sender).call{value: prizeAmount}(\"\");\n\n        require(success, \"Failed to withdraw money from contract.\");\n    }\n\n    function getAllWaves() public view returns (Wave[] memory) {\n        return waves;\n    }\n\n    function getTotalWaves() public view returns (uint256) {\n        return totalWaves;\n    }\n\n    function get_Balance() public view returns (uint256) {\n        return msg.sender.balance;\n    }\n}\n","sourcePath":"contracts/WavePortal.sol","type":"contract","deployment":{"address":"0x82e2dfCfB2cCB556F11b2715d4cf090Ff77da897","chainid":"4","blockHeight":10989953}}