{"abi":[{"inputs":[],"name":"getTotalWaves","outputs":[{"internalType":"uint256","name":"","type":"uint256"}],"stateMutability":"view","type":"function"},{"inputs":[{"internalType":"uint256","name":"_totalWaves","type":"uint256"}],"name":"waves","outputs":[],"stateMutability":"nonpayable","type":"function"}],"bytecode":"608060405234801561001057600080fd5b5060df8061001f6000396000f3fe6080604052348015600f57600080fd5b506004361060325760003560e01c80639a2cdc08146037578063c781267a14604c575b600080fd5b60005460405190815260200160405180910390f35b605b6057366004606c565b605d565b005b60668160016084565b60005550565b600060208284031215607d57600080fd5b5035919050565b6000821982111560a457634e487b7160e01b600052601160045260246000fd5b50019056fea26469706673582212203a64b85e78b631af18b2df306d1a17bd63b4de89f4b0008cfaac085433297fa064736f6c634300080d0033","bytecodeSha1":"1abbb567abaae56bc019b0ad679db3f1cad977b7","compiler":{"evm_version":"istanbul","optimizer":{"enabled":true,"runs":200},"version":"0.8.13+commit.abaa5c0e"},"contractName":"WavePortal","language":"Solidity","natspec":{"kind":"dev","methods":{},"version":1},"opcodes":"PUSH1 0x80 PUSH1 0x40 MSTORE CALLVALUE DUP1 ISZERO PUSH1 0xF JUMPI PUSH1 0x0 DUP1 REVERT JUMPDEST POP PUSH1 0x4 CALLDATASIZE LT PUSH1 0x32 JUMPI PUSH1 0x0 CALLDATALOAD PUSH1 0xE0 SHR DUP1 PUSH4 0x9A2CDC08 EQ PUSH1 0x37 JUMPI DUP1 PUSH4 0xC781267A EQ PUSH1 0x4C JUMPI JUMPDEST PUSH1 0x0 DUP1 REVERT JUMPDEST PUSH1 0x0 SLOAD PUSH1 0x40 MLOAD SWAP1 DUP2 MSTORE PUSH1 0x20 ADD PUSH1 0x40 MLOAD DUP1 SWAP2 SUB SWAP1 RETURN JUMPDEST PUSH1 0x5B PUSH1 0x57 CALLDATASIZE PUSH1 0x4 PUSH1 0x6C JUMP JUMPDEST PUSH1 0x5D JUMP JUMPDEST STOP JUMPDEST PUSH1 0x66 DUP2 PUSH1 0x1 PUSH1 0x84 JUMP JUMPDEST PUSH1 0x0 SSTORE POP JUMP JUMPDEST PUSH1 0x0 PUSH1 0x20 DUP3 DUP5 SUB SLT ISZERO PUSH1 0x7D JUMPI PUSH1 0x0 DUP1 REVERT JUMPDEST POP CALLDATALOAD SWAP2 SWAP1 POP JUMP JUMPDEST PUSH1 0x0 DUP3 NOT DUP3 GT ISZERO PUSH1 0xA4 JUMPI PUSH4 0x4E487B71 PUSH1 0xE0 SHL PUSH1 0x0 MSTORE PUSH1 0x11 PUSH1 0x4 MSTORE PUSH1 0x24 PUSH1 0x0 REVERT JUMPDEST POP ADD SWAP1 JUMP INVALID LOG2 PUSH5 0x6970667358 0x22 SLT KECCAK256 GASPRICE PUSH5 0xB85E78B631 0xAF XOR 0xB2 0xDF ADDRESS PUSH14 0x1A17BD63B4DE89F4B0008CFAAC08 SLOAD CALLER 0x29 PUSH32 0xA064736F6C634300080D00330000000000000000000000000000000000000000 ","sha1":"0e14e1729c2bcdd1a8373089b2d151eff1cb651d","source":"// SPDX-License-Identifier:MIT\npragma solidity ^0.8.0;\n\ncontract WavePortal {\n    uint256 totalWaves;\n\n    function waves(uint256 _totalWaves) public {\n        totalWaves = _totalWaves + 1;\n    }\n\n    function getTotalWaves() public view returns (uint256) {\n        return totalWaves;\n    }\n}\n","sourcePath":"contracts/wavePortal.sol","type":"contract","deployment":{"address":"0x91798e81F931BCDa30E8cD161A0cf60Ecfa53588","chainid":"4","blockHeight":10931117}}