{"abi":[{"inputs":[],"name":"getTotalWaves","outputs":[{"internalType":"uint256","name":"","type":"uint256"}],"stateMutability":"view","type":"function"},{"inputs":[],"name":"totalWaves","outputs":[{"internalType":"uint256","name":"","type":"uint256"}],"stateMutability":"view","type":"function"},{"inputs":[{"internalType":"uint256","name":"_totalWaves","type":"uint256"}],"name":"waves","outputs":[],"stateMutability":"nonpayable","type":"function"}],"bytecode":"608060405234801561001057600080fd5b5060f58061001f6000396000f3fe6080604052348015600f57600080fd5b5060043610603c5760003560e01c8063291bcab31460415780639a2cdc0814605b578063c781267a146062575b600080fd5b604960005481565b60405190815260200160405180910390f35b6000546049565b6071606d3660046082565b6073565b005b607c816001609a565b60005550565b600060208284031215609357600080fd5b5035919050565b6000821982111560ba57634e487b7160e01b600052601160045260246000fd5b50019056fea2646970667358221220aac74dce6c4b8a5ba00238293998a9f59a11359c2a99057f97e6f015a9cc3a5d64736f6c634300080d0033","bytecodeSha1":"4e78d1fe095a3c37e133b007b723eba9796b2ee7","compiler":{"evm_version":"istanbul","optimizer":{"enabled":true,"runs":200},"version":"0.8.13+commit.abaa5c0e"},"contractName":"WavePortal","language":"Solidity","natspec":{"kind":"dev","methods":{},"version":1},"opcodes":"PUSH1 0x80 PUSH1 0x40 MSTORE CALLVALUE DUP1 ISZERO PUSH1 0xF JUMPI PUSH1 0x0 DUP1 REVERT JUMPDEST POP PUSH1 0x4 CALLDATASIZE LT PUSH1 0x3C JUMPI PUSH1 0x0 CALLDATALOAD PUSH1 0xE0 SHR DUP1 PUSH4 0x291BCAB3 EQ PUSH1 0x41 JUMPI DUP1 PUSH4 0x9A2CDC08 EQ PUSH1 0x5B JUMPI DUP1 PUSH4 0xC781267A EQ PUSH1 0x62 JUMPI JUMPDEST PUSH1 0x0 DUP1 REVERT JUMPDEST PUSH1 0x49 PUSH1 0x0 SLOAD DUP2 JUMP JUMPDEST PUSH1 0x40 MLOAD SWAP1 DUP2 MSTORE PUSH1 0x20 ADD PUSH1 0x40 MLOAD DUP1 SWAP2 SUB SWAP1 RETURN JUMPDEST PUSH1 0x0 SLOAD PUSH1 0x49 JUMP JUMPDEST PUSH1 0x71 PUSH1 0x6D CALLDATASIZE PUSH1 0x4 PUSH1 0x82 JUMP JUMPDEST PUSH1 0x73 JUMP JUMPDEST STOP JUMPDEST PUSH1 0x7C DUP2 PUSH1 0x1 PUSH1 0x9A JUMP JUMPDEST PUSH1 0x0 SSTORE POP JUMP JUMPDEST PUSH1 0x0 PUSH1 0x20 DUP3 DUP5 SUB SLT ISZERO PUSH1 0x93 JUMPI PUSH1 0x0 DUP1 REVERT JUMPDEST POP CALLDATALOAD SWAP2 SWAP1 POP JUMP JUMPDEST PUSH1 0x0 DUP3 NOT DUP3 GT ISZERO PUSH1 0xBA JUMPI PUSH4 0x4E487B71 PUSH1 0xE0 SHL PUSH1 0x0 MSTORE PUSH1 0x11 PUSH1 0x4 MSTORE PUSH1 0x24 PUSH1 0x0 REVERT JUMPDEST POP ADD SWAP1 JUMP INVALID LOG2 PUSH5 0x6970667358 0x22 SLT KECCAK256 0xAA 0xC7 0x4D 0xCE PUSH13 0x4B8A5BA00238293998A9F59A11 CALLDATALOAD SWAP13 0x2A SWAP10 SDIV PUSH32 0x97E6F015A9CC3A5D64736F6C634300080D003300000000000000000000000000 ","sha1":"baa61e6034a20c5a213660ae46399c0edc8a9840","source":"// SPDX-License-Identifier:MIT\npragma solidity ^0.8.0;\n\ncontract WavePortal {\n    uint256 public totalWaves;\n\n    function waves(uint256 _totalWaves) public {\n        totalWaves = _totalWaves + 1;\n        address my = msg.sender;\n    }\n\n    function getTotalWaves() public view returns (uint256) {\n        return totalWaves;\n    }\n}\n","sourcePath":"contracts/WavePortal.sol","type":"contract","deployment":{"address":"0xA492537f1091c420A5bbCAB24956f7039C04DB9a","chainid":"4","blockHeight":10931972}}